:020000040000FA
:100000000C945D000C9485000C9485000C94850084
:100010000C9485000C9485000C9485000C9485004C
:100020000C9485000C9485000C9485000C9485003C
:100030000C9485000C9485000C9485000C9485002C
:100040000C941A020C9485000C948A020C9464029D
:100050000C9485000C9485000C9485000C9485000C
:100060000C9485000C94850000000008000201003B
:100070000003040700000000000000000000000072
:10008000250028002B0000000000240027002A0083
:10009000040404040404040402020202020203032E
:1000A0000303030301020408102040800102040836
:1000B00010200102040810204D0411241FBECFEFB0
:1000C000D8E0DEBFCDBF11E0A0E0B1E0E2EBF9E0A7
:1000D00002C005900D92A43AB107D9F722E0A4EA34
:1000E000B1E001C01D92AA34B207E1F710E0CDE5FE
:1000F000D0E004C02197FE010E94D104CC35D10785
:10010000C9F70E94BC020C94D7040C94000090E044
:10011000FC01EC55FF4F249180579F4FFC018491C7
:10012000882399F090E0880F991FFC01EA57FF4F50
:10013000A591B491FC01E458FF4F859194918FB73C
:10014000F894EC91E22BEC938FBF089590E0FC01C2
:10015000E859FF4F2491FC01EC55FF4F3491FC010D
:10016000E057FF4FE491EE23C9F0222339F023300A
:1001700001F1A8F4213019F1223029F1F0E0EE0F5D
:10018000FF1FE458FF4FA591B4918FB7F894EC91FD
:10019000611126C030953E233C938FBF08952730D0
:1001A000A9F02830C9F0243049F7809180008F7D74
:1001B00003C0809180008F7780938000DFCF84B56B
:1001C0008F7784BDDBCF84B58F7DFBCF8091B0006E
:1001D0008F778093B000D2CF8091B0008F7DF9CF20
:1001E0003E2BDACFAF92BF92CF92DF92EF92FF9287
:1001F0000F931F93CF93DF936C017B018B01040F4F
:10020000151FEB015E01AE18BF08C017D10759F0EA
:100210006991D601ED91FC910190F081E02DC6012C
:100220000995892B79F7C501DF91CF911F910F9126
:10023000FF90EF90DF90CF90BF90AF900895FC01BA
:10024000538D448D252F30E0842F90E0821B930B3B
:10025000541710F0CF96089501970895FC01918DE1
:10026000828D981761F0A28DAE0FBF2FB11D5D96E4
:100270008C91928D9F5F9F73928F90E008958FEF86
:100280009FEF0895FC01918D828D981731F0828D3A
:10029000E80FF11D858D90E008958FEF9FEF089591
:1002A000FC01918D228D892F90E0805C9F4F821BF5
:1002B00091098F73992708958DEA91E00E9450016A
:1002C00021E0892B09F420E0822F089580E090E05E
:1002D000892B29F00E945C0181110C940000089583
:1002E000FC01A48DA80FB92FB11DA35ABF4F2C91AB
:1002F000848D90E001968F739927848FA689B789A2
:100300002C93A089B1898C91837080648C93938D98
:10031000848D981306C00288F389E02D80818F7D3B
:1003200080830895EF92FF920F931F93CF93DF93F3
:10033000EC0181E0888F9B8D8C8D98131AC0E88921
:10034000F989808185FF15C09FB7F894EE89FF89F0
:100350006083E889F98980818370806480839FBF8E
:1003600081E090E0DF91CF911F910F91FF90EF908E
:100370000895F62E0B8D10E00F5F1F4F0F7311279E
:10038000E02E8C8D8E110CC00FB607FCFACFE889D9
:10039000F989808185FFF5CFCE010E947001F1CFF0
:1003A000EB8DEC0FFD2FF11DE35AFF4FF0829FB74D
:1003B000F8940B8FEA89FB8980818062CFCFCF933D
:1003C000DF93EC01888D8823B9F0AA89BB89E8897D
:1003D000F9898C9185FD03C0808186FD0DC00FB623
:1003E00007FCF7CF8C9185FFF2CF808185FFEDCFA1
:1003F000CE010E947001E9CFDF91CF910895FC01F9
:1004000001900020E9F73197AF01481B590BBC015F
:100410008DEA91E00C94F200CF93DF930E94FF01EC
:10042000EC0184E191E00E94FF018C0F9D1FDF91A0
:10043000CF9108951F920F920FB60F9211242F9310
:100440003F938F939F93AF93BF938091A901909116
:10045000AA01A091AB01B091AC013091A80123E0B9
:10046000230F2D3758F50196A11DB11D2093A8012A
:100470008093A9019093AA01A093AB01B093AC0122
:100480008091A4019091A501A091A601B091A7012E
:100490000196A11DB11D8093A4019093A501A09385
:1004A000A601B093A701BF91AF919F918F913F910A
:1004B0002F910F900FBE0F901F90189526E8230FD5
:1004C0000296A11DB11DD2CF1F920F920FB60F92AF
:1004D00011242F933F934F935F936F937F938F9349
:1004E0009F93AF93BF93EF93FF938DEA91E00E94A8
:1004F0007001FF91EF91BF91AF919F918F917F918B
:100500006F915F914F913F912F910F900FBE0F9080
:100510001F9018951F920F920FB60F9211242F93D0
:100520008F939F93EF93FF93E091BD01F091BE01F4
:100530008081E091C301F091C40182FD1BC09081D4
:100540008091C6018F5F8F732091C701821741F0A0
:10055000E091C601F0E0E355FE4F958F8093C60110
:10056000FF91EF919F918F912F910F900FBE0F9060
:100570001F9018958081F4CFCF93DF93CDB7DEB76E
:10058000A1970FB6F894DEBF0FBECDBF789484B5A7
:10059000826084BD84B5816084BD85B5826085BD7F
:1005A00085B5816085BD80916E00816080936E000D
:1005B00010928100809181008260809381008091FF
:1005C00081008160809381008091800081608093B0
:1005D00080008091B10084608093B1008091B00070
:1005E00081608093B00080917A00846080937A006B
:1005F00080917A00826080937A0080917A00816095
:1006000080937A0080917A00806880937A001092BB
:10061000C10084E00E94870085E00E94870086E098
:100620000E948700E091BD01F091BE0182E08083CD
:10063000E091B901F091BA011082E091BB01F09113
:10064000BC018FEC80831092C501E091C101F09153
:10065000C20186E08083E091BF01F091C0018081FA
:1006600080618083E091BF01F091C001808188604A
:100670008083E091BF01F091C00180818068808318
:10068000E091BF01F091C00180818F7D808387E17F
:1006900091E00E940C0289E0882E912CA12CB12CB3
:1006A0009AE0C92ED12CE12CF12C20E0622E20E022
:1006B000722E8DEA91E00E945001181619060CF076
:1006C0007CC08DEA91E00E942E01A82F883669F443
:1006D00061E084E00E94A60060E085E00E94A60040
:1006E0008CE591E00E940C0268C0813659F460E00C
:1006F00084E00E94A60061E085E00E94A60089E6F1
:1007000091E0F0CF80ED8A0F8A3008F0C3C00A2E46
:10071000000CBB0BD0972FEF30E00E94CA04A5015C
:1007200094010E947A04522E432E022F132F10930D
:1007300001010093000186E00E9487000115110568
:1007400009F047C060E086E00E94A6008AE791E0D9
:100750000E94FF012090000130900101032C000C49
:100760004408550857FE80C06DE28DEA91E00E9472
:10077000920122273327A901221933094409550977
:1007800019A28E010F5D1F4FCA01B901A701960181
:100790000E949904605DF80162938F012115310573
:1007A0004105510589F70115110519F0C8010E948D
:1007B000FF0184E191E00E94FF016114710409F4DA
:1007C00078CF0E945C01882309F473CF0E94000057
:1007D00070CF0F3F110511F461E0B5CFEEE6F0E008
:1007E0008491833029F140F48130C1F08230D9F016
:1007F000003811058CF7A6CF873031F1883061F1D0
:100800008430B1F780918000806280938000852DD4
:10081000942D90938B0080938A0098CF84B5806844
:1008200084BD57BC93CF84B5806284BD58BC8ECF45
:1008300080918000806880938000852D942D909316
:1008400089008093880082CF8091B0008068809377
:10085000B0005092B3007ACF8091B0008062809354
:10086000B0005092B40072CFA201910119A28E0182
:100870000F5D1F4FCA01B901A70196010E9499049B
:10088000605DF80162938F01211531054105510525
:1008900089F789CF81E991E025CFEDEAF1E0138274
:1008A000128288EE93E0A0E0B0E084839583A68373
:1008B000B78386E091E09183808385EC90E0958713
:1008C000848784EC90E09787868780EC90E0918B1A
:1008D000808B81EC90E0938B828B82EC90E0958B07
:1008E000848B86EC90E0978B868B118E128E138E04
:1008F000148E0895052E97FB1EF400940E94910417
:1009000057FD07D00E94990407FC03D04EF40C94C5
:10091000910450954095309521953F4F4F4F5F4F33
:10092000089590958095709561957F4F8F4F9F4F5B
:100930000895A1E21A2EAA1BBB1BFD010DC0AA1F20
:10094000BB1FEE1FFF1FA217B307E407F50720F038
:10095000A21BB30BE40BF50B661F771F881F991FB3
:100960001A9469F760957095809590959B01AC01FC
:10097000BD01CF010895A29FB001B39FC001A39F05
:10098000700D811D1124911DB29F700D811D1124C8
:10099000911D08950E94BB04B7FF0895821B930B1D
:1009A0000895EE0FFF1F0590F491E02D0994F8943F
:1009B000FFCFFF00000000009201F2001F01DF01E5
:1009C00050012E0142010D0A004C6973746F2E20F4
:1009D000456E766961202768272028686F726172EA
:1009E000696F292C202761272028616E7469686F40
:1009F000726172696F292C20273027E28093273992
:100A000027202876656C6F636964616429004769F3
:100A1000726F20686F726172696F004769726F2030
:100A2000616E7469686F726172696F0056656C6F90
:100A3000636964616420616A7573746164612061D3
:100A40003A2000436F6D616E646F206E6F2076C335
:060A5000A16C69646F0057
:107E0000112484B714BE81FFF0D085E080938100F7
:107E100082E08093C00088E18093C10086E0809377
:107E2000C20080E18093C4008EE0C9D0259A86E02C
:107E300020E33CEF91E0309385002093840096BBD3
:107E4000B09BFECF1D9AA8958150A9F7CC24DD24C4
:107E500088248394B5E0AB2EA1E19A2EF3E0BF2EE7
:107E6000A2D0813461F49FD0082FAFD0023811F036
:107E7000013811F484E001C083E08DD089C08234E0
:107E800011F484E103C0853419F485E0A6D080C0E4
:107E9000853579F488D0E82EFF2485D0082F10E0AE
:107EA000102F00270E291F29000F111F8ED06801E7
:107EB0006FC0863521F484E090D080E0DECF843638
:107EC00009F040C070D06FD0082F6DD080E0C81688
:107ED00080E7D80618F4F601B7BEE895C0E0D1E017
:107EE00062D089930C17E1F7F0E0CF16F0E7DF06D8
:107EF00018F0F601B7BEE89568D007B600FCFDCFD4
:107F0000A601A0E0B1E02C9130E011968C91119780
:107F100090E0982F8827822B932B1296FA010C0160
:107F200087BEE89511244E5F5F4FF1E0A038BF0790
:107F300051F7F601A7BEE89507B600FCFDCF97BE46
:107F4000E89526C08437B1F42ED02DD0F82E2BD052
:107F50003CD0F601EF2C8F010F5F1F4F84911BD097
:107F6000EA94F801C1F70894C11CD11CFA94CF0C13
:107F7000D11C0EC0853739F428D08EE10CD085E9AC
:107F80000AD08FE07ACF813511F488E018D01DD067
:107F900080E101D065CF982F8091C00085FFFCCF94
:107FA0009093C60008958091C00087FFFCCF809118
:107FB000C00084FD01C0A8958091C6000895E0E648
:107FC000F0E098E1908380830895EDDF803219F02E
:107FD00088E0F5DFFFCF84E1DECF1F93182FE3DFCA
:107FE0001150E9F7F2DF1F91089580E0E8DFEE27F6
:047FF000FF270994CA
:027FFE00040479
:00000001FF
